:100000000C943A000C9457000C9457000C94570031
:100010000C9457000C9457000C9457000C94570004
:100020000C9457000C9457000C9457000C945700F4
:100030000C9457000C9457000C9457000C945700E4
:100040000C9457000C9457000C9457000C945700D4
:100050000C9457000C9457000C9457000C945700C4
:100060000C9457000C9457000C9457000C945700B4
:100070000C94570011241FBECFEFD2E0DEBFCDBFDE
:1000800011E0A0E0B1E0EAE6F1E002C005900D92D7
:10009000A030B107D9F711E0A0E0B1E001C01D9296
:1000A000A030B107E1F70E9459000C94B4000C9401
:1000B00000000F931F93CF93DF9380E18AB98FEEF7
:1000C0008BB984E087B988B98FEF84B985B960E0CE
:1000D00070E0A1E0B0E007E010E0C1E0D0E0A130C6
:1000E000B105C9F485B19D01062E02C0220F331F50
:1000F0000A94E2F7922F9095892385B940E050E069
:10010000EAEFF0E0CF010197F1F74F5F5F4F463420
:100110005105C1F71BC085B19801261B370BAE01F5
:1001200002C0440F551F2A95E2F79A01942F90952B
:10013000892385B940E050E0EAEFF0E0CF01019774
:10014000F1F74F5F5F4F46345105C1F785B1822B00
:1001500085B96F5F7F4F6830710509F0C0CFA095FA
:0A016000B09560E070E0BBCFFFCF68
:00000001FF
