:100000000C943A000C9444000C9444000C9444006A
:100010000C9444000C9444000C9444000C94440050
:100020000C9444000C9444000C9444000C94440040
:100030000C9444000C9444000C9444000C94440030
:100040000C9444000C9444000C9444000C94440020
:100050000C9444000C9444000C9444000C94440010
:100060000C9444000C9444000C9444000C94440000
:100070000C94440011241FBECFEFD2E0DEBFCDBFF1
:100080000E9446000C9467000C94000080E18AB93D
:100090008FEE8BB984E087B988B98FEF84B985B9C1
:1000A000289884EF91E0EFE9FFE03197F1F700C085
:1000B00000000197C1F7289A84EF91E0EFE9FFE093
:1000C0003197F1F700C000000197C1F7E9CFF8942C
:0200D000FFCF60
:00000001FF
