:100000000C943A000C9457000C9457000C94570031
:100010000C9457000C9457000C9457000C94570004
:100020000C9457000C9457000C9457000C945700F4
:100030000C9457000C9457000C9457000C945700E4
:100040000C9457000C9457000C9457000C945700D4
:100050000C9457000C9457000C9457000C945700C4
:100060000C9457000C9457000C9457000C945700B4
:100070000C94570011241FBECFEFD2E0DEBFCDBFDE
:1000800011E0A0E0B1E0E2E1F1E002C005900D92E4
:10009000A030B107D9F711E0A0E0B1E001C01D9296
:1000A000A030B107E1F70E946C000C9488000C941A
:1000B000000040E050E00CC088E290E00197F1F7CA
:1000C00021503040C9F74F5F5F4F4830510519F05C
:1000D0002CE135E2F1CF08959FEF94B984E087B920
:1000E00088B995B98FEF85B920ED37E088E290E0C7
:1000F0000197F1F721503040C9F715B820ED37E0EE
:1001000088E290E00197F1F721503040C9F7EACF3B
:02011000FFCF1F
:00000001FF
