:100000000C943A000C9457000C9457000C94570031
:100010000C9457000C9457000C9457000C94570004
:100020000C9457000C9457000C9457000C945700F4
:100030000C9457000C9457000C9457000C945700E4
:100040000C9457000C9457000C9457000C945700D4
:100050000C9457000C9457000C9457000C945700C4
:100060000C9457000C9457000C9457000C945700B4
:100070000C94570011241FBECFEFD2E0DEBFCDBFDE
:1000800011E0A0E0B1E0E8EFF0E002C005900D92D1
:10009000A030B107D9F711E0A0E0B1E001C01D9296
:1000A000A030B107E1F70E9460000C947B000C9433
:1000B00000008FEF84B985B984E087B988B90895C5
:1000C0008FEF84B985B984E087B988B9289820ED85
:1000D00037E088E290E00197F1F721503040C9F70E
:1000E000289A20ED37E088E290E00197F1F721505F
:0800F0003040C9F7EBCFFFCF50
:00000001FF
