:100000000C943A000C9457000C9457000C94570031
:100010000C9457000C9457000C9457000C94570004
:100020000C9457000C9457000C9457000C945700F4
:100030000C9457000C9457000C9457000C945700E4
:100040000C9457000C9457000C9457000C945700D4
:100050000C9457000C9457000C9457000C945700C4
:100060000C9457000C9457000C9457000C945700B4
:100070000C94570011241FBECFEFD2E0DEBFCDBFDE
:1000800011E0A0E0B1E0EEE3F1E002C005900D92D6
:10009000A030B107D9F711E0A0E0B1E001C01D9296
:1000A000A030B107E1F70E946C000C949E000C9404
:1000B000000040E050E00CC088E290E00197F1F7CA
:1000C00021503040C9F74F5F5F4F4830510519F05C
:1000D0002CE135E2F1CF08959FEF94B984E087B920
:1000E00088B995B928C081E090E0022E02C0880F3F
:1000F000991F0A94E2F7809585B980E49FE1019702
:10010000F1F72F5F3F4F2830310568F320E030E0F2
:1001100080E890E0022E02C0959587950A94E2F758
:10012000809585B980E49FE10197F1F72F5F3F4FFC
:0E0130002830310569F720E030E0E5CFFFCF41
:00000001FF
