:100000000C943A000C9457000C9457000C94570031
:100010000C9457000C9457000C9457000C94570004
:100020000C9457000C9457000C9457000C945700F4
:100030000C9457000C9457000C9457000C945700E4
:100040000C9457000C9457000C9457000C945700D4
:100050000C9457000C9457000C9457000C945700C4
:100060000C9457000C9457000C9457000C945700B4
:100070000C94570011241FBECFEFD2E0DEBFCDBFDE
:1000800011E0A0E0B1E0E2E1F1E002C005900D92E4
:10009000A030B107D9F711E0A0E0B1E001C01D9296
:1000A000A030B107E1F70E9459000C9488000C942D
:1000B00000009FEF94B984E087B988B995B920E032
:1000C00030E081E090E0022E02C0880F991F0A9470
:1000D000E2F7809585B980E49FE10197F1F72F5F02
:1000E0003F4F2830310568F3EACF40E050E00CC0C4
:1000F00088E290E00197F1F721503040C9F74F5F57
:100100005F4F4830510519F02CE135E2F1CF0895E9
:02011000FFCF1F
:00000001FF
