:100000000C943A000C9457000C9457000C94570031
:100010000C9457000C9457000C9457000C94570004
:100020000C9457000C9457000C9457000C945700F4
:100030000C9457000C9457000C9457000C945700E4
:100040000C9457000C9457000C9457000C945700D4
:100050000C9457000C9457000C9457000C945700C4
:100060000C9457000C9457000C9457000C945700B4
:100070000C94570011241FBECFEFD2E0DEBFCDBFDE
:1000800011E0A0E0B1E0E0E3F1E002C005900D92E4
:10009000A030B107D9F711E0A0E0B1E001C01D9296
:1000A000A030B107E1F70E946C000C9497000C940B
:1000B000000040E050E00CC088E290E00197F1F7CA
:1000C00021503040C9F74F5F5F4F4830510519F05C
:1000D0002CE135E2F1CF08958FEF84B984E087B940
:1000E00088B98FEF85B920ED37E088E290E001977D
:1000F000F1F721503040C9F740E050E081E090E056
:10010000042E02C0880F991F0A94E2F7809585B9E2
:1001100020ED37E088E290E00197F1F72150304080
:10012000C9F74F5F5F4F4830510541F7DACFFFCF36
:00000001FF
