:100000000C943A000C9457000C9457000C94570031
:100010000C9457000C9457000C9457000C94570004
:100020000C9457000C9457000C9457000C945700F4
:100030000C9457000C9457000C9457000C945700E4
:100040000C9457000C9457000C9457000C945700D4
:100050000C9457000C9457000C9457000C945700C4
:100060000C9457000C9457000C9457000C945700B4
:100070000C94570011241FBECFEFD2E0DEBFCDBFDE
:1000800011E0A0E0B1E0ECEFF0E002C005900D92CD
:10009000A030B107D9F711E0A0E0B1E001C01D9296
:1000A000A030B107E1F70E9459000C947C000C9439
:1000B000000080E18AB98FEE8BB984E087B988B9F6
:1000C0008FEF84B985B92AEF30E0289880E090E07E
:1000D000F9013197F1F7019641E0843F9407C1F7A8
:1000E000289A80E090E0F9013197F1F7019641E01C
:0C00F000843F9407C1F7E9CFF894FFCFDC
:00000001FF
