:100000000C9491000C94AE000C94AE000C94AE00D5
:100010000C94AE000C94AE000C94AE000C94AE00A8
:100020000C94AE000C94AE000C94AE000C944C05F5
:100030000C94AE000C94AE000C94AE000C94AE0088
:100040000C94AE000C94AE000C94AE000C94AE0078
:100050000C94AE000C94AE000C94AE000C94AE0068
:100060000C94AE000C94AE000C94AE000C94AE0058
:100070000C94AE001201000200000020EB031D20D2
:100080000010010203010902290001010080320968
:1000900004000002030000000921110108012235BB
:1000A0000007058103080014070502030800140C6B
:1000B00003410054004D0045004C0022034100560E
:1000C0000052002000550053004200200048004923
:1000D0000044002000440045004D004F000C033157
:1000E000002E0030002E0030000403090406FFFF3C
:1000F0000901A10109020903150026FF00750895F1
:1001000008810209040905150026FF0075089508F5
:10011000910209060907150026FF0075089504B12C
:1001200002C011241FBECFEFD2E0DEBFCDBF12E070
:10013000A0E0B1E0EEE0F2E102C005900D92A03641
:10014000B107D9F712E0A0E6B2E001C01D92A237D4
:10015000B107E1F70E94BD010C9406090C94000060
:100160002F923F924F925F926F927F928F929F92C7
:10017000AF92BF92CF92DF92EF92FF920F931F93B5
:10018000CF93DF93CDB7DEB723970FB6F894DEBFDA
:100190000FBECDBF84E087B988B98FEF84B9559879
:1001A0005D9A40E022241B821A824424552466244E
:1001B000772488249924CC24DD24AA24BB2400E0BD
:1001C00010E01982332480916002909161027C01D9
:1001D000B3E0EE0CFF1CBA95E1F7E81AF90A8DEDD1
:1001E0009FEFE80EF91E37C088249924CC24DD2423
:1001F000AA24BB2430C0EA81FB813196FB83EA83C9
:10020000F401EA0DFB1DCF0167E070E00E94DE08FB
:10021000DB010E94F208202D82E0C816D104A1F46F
:10022000CF0167E070E00E94DE083327F901A3E008
:10023000EE0FFF1FAA95E1F7E21BF30BE050FF4F13
:10024000E80FF91F808101C08FEF85B980E392E04C
:100250000197F1F724C081E090E0042E02C0880FDE
:10026000991F0A94E2F7809585B988E191E001979A
:10027000F1F70734110518F40F5F1F4F10C022204B
:1002800031F0473010F0222408C04F5F06C04423ED
:1002900019F471E0272E01C0415000E010E089B14F
:1002A00080729981981711F4332431C03394EAE0B5
:1002B000E31568F5F981FF2349F1882339F52A818F
:1002C0003B81220F331FC90153E0880F991F5A95B4
:1002D000E1F7821B930B64E170E00E94DE082B01C2
:1002E000C90164E170E00E94DE083B0186E090E015
:1002F000880E991E8E149F0418F41B821A8204C063
:100300001B821A8288249924198201C08983EA8178
:10031000FB81E415F50529F421E0C22ED12CAA2495
:10032000BB248A819B818615970521F493E2A92E2F
:10033000B12C13C091E0C916D10441F4E3E2AE162A
:10034000B104C0F40894A11CB11C0DC0F2E0CF169A
:10035000D10449F4A114B10469F00894A108B108CA
:1003600082E0C82ED12C8A819B818C52914008F06A
:100370003BCF41CFCC24DD24F6CF80E18AB98FEE8C
:100380008BB988EE93E00197F1F74D9B1EC08091E9
:1003900063008E7F80936300A89587EF84BF809170
:1003A00060008861809360001092600080E8809314
:1003B0006100109261000E94F1050E94B3030E9447
:1003C000EE050E94C803892BD1F780E88093610075
:1003D00083E080936100109261021092600220E03D
:1003E00030E002C02F5F3F4FD9010E94F208802DFC
:1003F0008F3F21F081E02D3F3807A0F33093610259
:10040000209360020E94B00080E090E00895833065
:1004100039F5613069F0613028F0623079F063308D
:10042000F9F412C084E080936F0289EE90E011C06D
:100430008CE080936F028FEA90E00BC082E28093A1
:100440006F028BEB90E005C08CE080936F028DED26
:1004500090E0909371028093700281E090E00895A3
:1004600080E090E00895CF93DF93CDB7DEB7229779
:100470000FB6F894DEBF0FBECDBF8091F100809320
:100480006B028091F10080936C0285E380936F0290
:100490008DEE90E090937102809370028091F10054
:1004A00089838091F1008A838091E800877F80931F
:1004B000E80089819A818633910528F090916F0236
:1004C0002DEE30E01CC080936F02F8CF8091E800E1
:1004D00080FFFCCF81E003C08F5F813251F0F901D2
:1004E0002F5F3F4FE491E093F100492F481B89179C
:1004F00099F78091E8008E7F8093E800942F9923EC
:1005000059F08091E80082FFE1CF3093710220938F
:10051000700290936F0206C03093710220937002B4
:1005200010926F028091E8008E7F8093E8008091A6
:10053000E80082FFFCCF8091E8008B7F8093E80089
:100540008091E8008F778093E80022960FB6F894A8
:10055000DEBF0FBECDBFDF91CF9108958091E8003F
:10056000877F8093E8008091E8008E7F8093E80089
:100570008091E80082FFFCCF8091E8008B7F809320
:10058000E8008091E8008F778093E8008091E80090
:100590008E7F8093E80008958091F1008091F100B2
:1005A0008091F10080936B028091F10080936C0246
:1005B0008091E800877F8093E8008091E8008E7F3B
:1005C0008093E8008091E80080FFFCCF089580913F
:1005D000F1008091F1008091F10080936B02809195
:1005E000F10080936C028091E800877F8093E8009F
:1005F0008091E8008E7F8093E8008091E80080FF82
:10060000FCCF0895CF93DF93CDB7DEB722970FB617
:10061000F894DEBF0FBECDBF8091F10080936B02D6
:100620008091F10080936C0289E080936F0288E9E9
:1006300090E090937102809370028091F100898321
:100640008091F1008A838091E800877F8093E800A1
:1006500089819A818A30910528F090916F0228E96A
:1006600030E01CC080936F02F8CF8091E80080FFDB
:10067000FCCF81E003C08F5F813251F0F9012F5F21
:100680003F4FE491E093F100492F481B891799F7F8
:100690008091E8008E7F8093E800942F992359F091
:1006A0008091E80082FFE1CF3093710220937002C5
:1006B00090936F0206C030937102209370021092E3
:1006C0006F028091E8008E7F8093E8008091E800BF
:1006D00082FFFCCF8091E8008B7F8093E8008091BF
:1006E000E8008F778093E80022960FB6F894DEBF7B
:1006F0000FBECDBFDF91CF9108958091F100809121
:10070000F100693071F06A3089F06630A1F481320D
:1007100029F0823281F40E9433020AC00E9402034F
:1007200007C0823041F40E94AE0202C00E94E7027C
:1007300081E090E0089580E090E008950F931F938A
:1007400009EE10E081E0F801808360E081EC0E9416
:10075000E20482E0F801808360E080EC0E94E20421
:100760001F910F9108958FEF84B99FE795B984E0A9
:1007700087B988B980E18AB98FEE8BB995B985B10F
:1007800085B90895809162028F5F80936202089517
:10079000CF93DF93CDB7DEB724970FB6F894DEBFC3
:1007A0000FBECDBF80916E02882309F4F4C082E0B1
:1007B0008093E9008091E80082FFB2C09091F1003F
:1007C0009F709F3009F04CC09091F1008091F10032
:1007D000A0916002B09161021196B0936102A09362
:1007E00060021197082E0E94FA088091F100A091F2
:1007F0006002B09161021196B0936102A093600211
:100800001197082E0E94FA088091F100A0916002D1
:10081000B09161021196B0936102A09360021197AA
:10082000082E0E94FA08992309F0B8C0A09160022E
:10083000B09161028FEF082E0E94FA088091E800C3
:100840008B7F8093E8008091E8008F778093E800A9
:100850008091E00081608093E00080E090E0A9C09A
:100860008091F1008F70823081F0833018F48130F4
:10087000E9F405C0833079F08430C1F412C09923C3
:1008800011F0289813C0289A11C0992311F02998C3
:100890000DC0299A0BC0992311F02A9807C02A9AF3
:1008A00005C0992311F02B9801C02B9A8091F1007B
:1008B0008ABD9091F1002091F1008091E8008B7F3A
:1008C0008093E8008091E8008F778093E800953569
:1008D00039F52A3A29F58FE785B98091E0008160E2
:1008E0008093E00019821A821B821C820BC08981CE
:1008F0009A81AB81BC810196A11DB11D89839A8328
:10090000AB83BC8389819A81AB81BC818057914143
:10091000A140B04060F3E0915E02F0915F02099562
:100920004D9B0AC04F9B08C099B19295969596959C
:1009300093709095917001C091E081E08093E900FF
:100940008091E80085FF27C080916302981719F114
:100950009093F1008AB58093F1008AB58093F100FD
:100960008AB58093F1008AB58093F1008AB58093AF
:10097000F1008AB58093F1008AB58093F1008091EF
:10098000E8008E7F8093E8008091E8008F77809365
:10099000E8009093630281E090E00BC08091E80052
:1009A0008B7F8093E8008091E8008F778093E80048
:1009B000B7CF24960FB6F894DEBF0FBECDBFDF9140
:1009C000CF9108959091EB0091609093EB0080930C
:1009D000EC008091ED008270862B8093ED00809179
:1009E000ED0082608093ED008091EE00992787FDF5
:1009F00090958827990F881F992708954091F400B2
:100A000020E030E0822F40FF02C0992708952F5F39
:100A10003F4F2730310511F04695F4CF80E090E04C
:100A20000895FB018093E90004C081918093F10057
:100A300041508091E80085FF02C04423B1F7842F24
:100A400099270895FB018093E90004C08091F1008B
:100A5000819341508091E80085FF02C04423B1F7A3
:100A6000842F992708958093E900EBEEF0E08081D0
:100A70008062808308951092E9008091EB0080FFEE
:100A800003C080E090E008951092E90060E282E007
:100A90000E94E204992708951F920F920FB60F92B9
:100AA00011242F933F934F935F936F937F938F9373
:100AB0009F93AF93BF93EF93FF938091E10082FFE9
:100AC00009C08091E20082FF05C08BEF8093E100B6
:100AD0000E94C2038091E10080FF1DC08091E2006E
:100AE00080FF19C08091E20080618093E2008FEE68
:100AF0008093E1008091D80080628093D80080913B
:100B00006402909165028062909365028093640212
:100B10008EEF8093E1008091E10084FF1AC0809104
:100B2000E20084FF16C08091D8008F7D8093D800AA
:100B30008FEE8093E1008091E2008F7E8093E2004F
:100B40008091640290916502806490936502809325
:100B500064028091E10085FF1AC08091E20085FF68
:100B600016C08091E2008F7E8093E2008FED80932B
:100B7000E1008091E2008F7D8093E2008091640229
:100B800090916502806890936502809364028091E1
:100B9000E10083FF12C08091E20083FF0EC087EF67
:100BA0008093E1000E943B05809164029091650270
:100BB00091609093650280936402FF91EF91BF91E1
:100BC000AF919F918F917F916F915F914F913F91E5
:100BD0002F910F900FBE0F901F9018950E949208B2
:100BE00008950E9414080895CF93DF93CDB7DEB720
:100BF00022970FB6F894DEBF0FBECDBF8091E800FC
:100C00008B7F8093E8009091F1009093690260914E
:100C1000F1006630F9F0673068F4613009F415C10D
:100C2000613008F486C1633009F44AC1653009F0C7
:100C3000E3C1D1C0693009F4EFC06A3020F46830F4
:100C400009F0DAC1ACC06A3009F4A7C16B3009F011
:100C5000D3C1C1C1903809F0A0C010926602609162
:100C6000F1008091F100813019F0823089F406C0E2
:100C700082E180936F0284E790E005C089E280936F
:100C80006F0286E890E0909371028093700205C035
:100C90000E940702882309F4B4C18091F100809179
:100CA000F1008091F10089838091F1008A83809125
:100CB000E800877F8093E80029813A8180916F0264
:100CC00099278217930758F48F719070892B21F41C
:100CD00081E08093660205C01092660202C02093F4
:100CE0006F028091E8008F7E8093E800209170026F
:100CF0003091710290916F021FC08091E80084FDD5
:100D000009C08091E80080FFF8CF04C08F5F813276
:100D100051F001C081E0F9012F5F3F4FE491E09372
:100D2000F100915099F78091E80084FD12C0809104
:100D3000E8008E7F8093E800992339F430937102A4
:100D40002093700210926F020AC08091E80084FF25
:100D5000D8CF309371022093700290936F028091EC
:100D60006602813069F48091E80084FD09C08091B9
:100D7000E80080FFFCCF8091E8008E7F8093E80040
:100D80008091E80084FFFCCF8091E8008F7E809303
:100D9000E8008091E8008B7F3CC166E018C1903884
:100DA000C1F48091E800877F8093E80080916E0213
:100DB0008093F1008091E8008E7F8093E80080911D
:100DC000E8008F778093E8008091E80082FFFCCFF5
:100DD000F4C068E0FCC09923E9F49091E3008091AD
:100DE000F10090788F77982B9093E3008091E80042
:100DF000877F8093E8008091E8008E7F8093E800F1
:100E00008091E80080FFFCCF8091E30080688093B0
:100E1000E30001C165E0DBC09923A9F49091F100E2
:100E2000923008F0EEC08091E800877F8093E80060
:100E300090936E028091E8008E7F8093E800892F66
:100E40000E949E03E8C069E0C2C09330B8F59923C0
:100E5000D9F1913009F4D5C0923009F0DCC080910D
:100E6000F1009091F100882309F0CBC0E091F100EE
:100E7000EF77E093E9008091EB0080FF55C0EE230F
:100E8000B1F08091EB0080618093EB0081E090E015
:100E90000E2E02C0880F991F0A94E2F78093EA0091
:100EA0001092EA008091EB0088608093EB00109232
:100EB000E900FF27E959FD4F10822DC061E087C08E
:100EC0009330A8F5992319F48091F1009AC09130DC
:100ED00009F497C0923009F09EC08091F100909182
:100EE000F100882309F08DC0E091F100EF7709F45B
:100EF00088C0E093E9008091EB0080FF15C08091ED
:100F0000EB0080628093EB001092E900FF27E95923
:100F1000FD4F81E080838091E800877F8093E80027
:100F20008091E8008E7F75C01092E9006AC063E08E
:100F30004EC0892F8058833070F58091F1008091E8
:100F4000F100E091F100913829F0923859F0903891
:100F500009F057C08091E800877F8093E8001092E5
:100F6000F1000DC08091E800877F8093E800FF27A3
:100F7000EF77F070E959FD4F80818093F100109276
:100F8000F1008091E8008E7F8093E8008091E80076
:100F900082FFFCCF12C060E01AC09138B9F4809192
:100FA000E800877F8093E8008091E8008E7F80933F
:100FB000E8008091E80082FFFCCF8091E8008B7F01
:100FC0008093E8008091E8008F7723C06AE0892F42
:100FD0000E947D0320C09130F1F48091E800877F6A
:100FE0008093E8008091E8008E7F8093E8008091F4
:100FF000E80080FD10C0FBCF892F0E947D0388236D
:1010000051F48091EB0080628093EB008091E800C6
:10101000877F8093E80022960FB6F894DEBF0FBE5C
:10102000CDBFDF91CF910895E8EDF0E080818F771B
:101030008083808180688083089590E031E022E0A1
:1010400046E034C08091D80080628093D80089B592
:101050008D7F89BD15BC14BC16BC35BB992319F016
:10106000913029F402C029BD04C049BD02C029BD88
:1010700090E09F5F85B5856085BD09B400FC03C025
:1010800085B38130D1F715BC16BC85B3813011F41E
:1010900085BB0CC08091D8008F7D8093D80035BB74
:1010A00085B5856085BD85B38130E9F78091E10024
:1010B00082FFC8CF14BC15BC16BC8BEF8093E10037
:1010C0000895EF92FF920F931F9388EDE82EF12C75
:1010D000F70180818062808380818068808300EE58
:1010E00010E0F80180818E7F80830E941D08F70147
:1010F00080818F7D8083F80180818E7F80838081D5
:101100008B7F8083E2EEF0E080818160808380814C
:101110008860808378940E943B051F910F91FF9017
:10112000EF90089580916A02882329F481E08093EA
:101130006A020E946108809164029091650290FFAA
:1011400010C080916402909165029E7F9093650229
:101150008093640281E08093EA001092EA0010928A
:101160006E021092E9008091E80083FF02C00E94A5
:10117000F405089513BE83B7856083BF88950895ED
:1011800013BE83B7816083BF8895089513BE83B76C
:10119000836083BF8895089513BE83B7876083BF3C
:1011A0008895089513BE83B78D6083BF8895089591
:1011B00013BE83B78F6083BF88950895AA1BBB1B9E
:1011C00051E107C0AA1FBB1FA617B70710F0A61B47
:1011D000B70B881F991F5A95A9F780959095BC0168
:1011E000CD010895F999FECFB2BDA1BDF89A11962F
:1011F00000B40895F999FECFB2BDA1BD00BC11960F
:0E1200000FB6F894FA9AF99A0FBE0895FFCF30
:10120E00FFFFFFFFFFFFFFFF8077777780FFFF0075
:10121E006E6E6E91FFFF817E7E7E7EFFFF007E7E74
:10122E007E81FFFF006E6E6E7EFFFF006F6F6F7F21
:10123E00FFFF817E7676B1FFFF00EFEFEF00FFFF3D
:10124E00FF7E007EFFFFFFFDFEFEFE01FFFF00EFB3
:10125E00EFD738FFFF01FEFEFEFEFFFF00BFDFBF30
:10126E0000FFFF009FE7F900FFFF817E7E7E81FF7A
:10127E00FF007777779FFFFF817E7A7D82FFFF00E9
:10128E007777738CFFFF9C6E6E6EB1FFFF7F7F00D2
:10129E007F7FFFFF01FEFEFE01FFFF03FEFEFE034A
:1012AE00FFFF00FDFBFD00FFFF38D7EFD738FFFF34
:1012BE003FDFE0DF3FFFFF78766E5E3EFFFF817A15
:1012CE00766E81FFFFFFDFBF00FFFFFFBC7A766EF9
:1012DE009EFFFFBD7E6E6E91FFFF07F7C0F7F7FF13
:1012EE00FF0E6E6E6E71FFFF816E6E6EF1FFFF7FF1
:1012FE007C734F3FFFFF916E6E6E91FFFF9D6E6E82
:10130E006E81FFFFFF0202FFFFFFFF675A5ABBFF0E
:10131E00FFFFF7F7F7F7F7FFFFEFEF83EFEFFFFFB3
:10132E00ABC701C7ABFFFFFFFFD7D7FFFFFFFFFE26
:10133E00FDD7FFFFFFFFFCFCD7FFFFFFDD9EF29EF8
:10134E00DDFFFFC783C183C7FFFFFFC3BD7EFFFF66
:10135E00FFFF7EBDC3FFFFFFEBEBEBEBEBFF00F000
:00000001FF
