:100000000C943A000C9457000C9457000C94570031
:100010000C9457000C9457000C9457000C94570004
:100020000C9457000C9457000C9457000C945700F4
:100030000C9457000C9457000C9457000C945700E4
:100040000C9457000C9457000C9457000C945700D4
:100050000C9459000C9470000C9457000C945700A9
:100060000C9457000C9457000C9457000C945700B4
:100070000C94570011241FBECFEFD2E0DEBFCDBFDE
:1000800011E0A0E0B1E0ECE3F1E002C005900D92D8
:10009000A030B107D9F711E0A0E0B1E001C01D9296
:1000A000A230B107E1F70E9487000C949D000C94E8
:1000B00000001F920F920FB60F9211248F93CF93CF
:1000C000DF93CDB7DEB7809100018F5F8093000191
:1000D000DF91CF918F910F900FBE0F901F901895C9
:1000E0001F920F920FB60F9211248F93CF93DF932D
:1000F000CDB7DEB7809101018F5F80930101DF9161
:10010000CF918F910F900FBE0F901F901895CF93A6
:10011000DF93CDB7DEB7E4E2F0E08FE78083E5E47C
:10012000F0E082E08083E7E4F0E08EE68083EEE6B4
:0C013000F0E082E080837894FFCFFFCFE6
:00000001FF
