:100000000C949D000C94BA000C94BA000C94BA00A5
:100010000C94BA000C94BA000C94BA000C94BA0078
:100020000C94BA000C94BA000C94BA000C94980387
:100030000C94BA000C94BA000C94BA000C94BA0058
:100040000C94BA000C94BA000C94BA000C94BA0048
:100050000C94BA000C94BA000C94BA000C94BA0038
:100060000C94BA000C94BA000C94BA000C94BA0028
:100070000C94BA00B9054E051A0684051A06100537
:1000800055041A06F4043105E905090606FFFF09BF
:1000900001A10109020903150026FF007508950852
:1000A000810209040905150026FF007508950891CD
:1000B0000209060907150026FF0075089504B1021C
:1000C000C0040309040C0331002E0030002E003060
:1000D0000022034100560052002000550053004208
:1000E0000020004800490044002000440045004D25
:1000F000004F000C03410054004D0045004C000926
:1001000002290001010080320904000002030000FE
:1001100000092111010801223500070581030800AB
:100120001407050203080014120100020000002059
:10013000EB031D2000100102030111241FBECFEFAD
:10014000D2E0DEBFCDBF12E0A0E0B1E0E2EAF0E134
:1001500002C005900D92A036B107D9F722E0A0E6C3
:10016000B2E001C01D92A237B207E1F70E94C607B4
:100170000C944F080C940000CF93DF93C9EED0E0AD
:1001800081E0888360E081EC0E94700382E08883D4
:1001900060E080ECDF91CF910C947003833021F507
:1001A000613089F050F06230A1F06330E9F48CE006
:1001B00080936F0285EC90E011C084E080936F0221
:1001C00081EC90E00BC08CE080936F0283EF90E0B5
:1001D00005C082E280936F0281ED90E090937102FE
:1001E0008093700281E0089580E00895CF93DF93BB
:1001F00000D0CDB7DEB78091F10080936B02809183
:10020000F10080936C0285E380936F028CE890E0AC
:1002100090937102809370028091F10089838091A4
:10022000F1008A838091E800877F8093E80029812C
:100230003A8180916F02482F50E04217530720F413
:100240008F7191E0B9F002C020936F0290E012C06C
:100250008091E80082FD29C08091E80080FFFCCFFA
:1002600081E220916F0221110AC08091E8008E7F07
:100270008093E80080916F028111EACF16C081500F
:10028000A1F3E0917002F09171029F012F5F3F4F47
:100290003093710220937002E491E093F100209179
:1002A0006F02215020936F02DCCF8091E8008E7F97
:1002B0008093E8008091E80082FD0BC0913029F422
:1002C0008091E8008E7F8093E8008091E80082FFB3
:1002D000FCCF8091E8008B7F8093E8008091E8005C
:1002E0008F778093E8000F900F90DF91CF91089562
:1002F0008091E800877F8093E8008091E8008E7FFE
:100300008093E8008091E80082FFFCCF8091E800B4
:100310008B7F8093E8008091E8008F778093E800DE
:100320008091E8008E7F8093E80008958091F1002D
:100330008091F1008091F10080936B028091F10037
:1003400080936C028091E800877F8093E800809121
:10035000E8008E7F8093E8008091E80080FFFCCF6A
:100360000895CF93DF9300D0CDB7DEB78091F10031
:1003700080936B028091F10080936C0289E08093FE
:100380006F0281E191E090937102809370028091FD
:10039000F10089838091F1008A838091E800877F52
:1003A0008093E80029813A8180916F02482F50E0C4
:1003B0004217530720F48F7191E0B9F002C02093E7
:1003C0006F0290E012C08091E80082FD29C0809108
:1003D000E80080FFFCCF81E220916F0221110AC06A
:1003E0008091E8008E7F8093E80080916F028111F8
:1003F000EACF16C08150A1F3E0917002F091710232
:100400009F012F5F3F4F3093710220937002E49160
:10041000E093F10020916F02215020936F02DCCF16
:100420008091E8008E7F8093E8008091E80082FD53
:100430000BC0913029F48091E8008E7F8093E80012
:100440008091E80082FFFCCF8091E8008B7F809351
:10045000E8008091E8008F778093E8000F900F907C
:10046000DF91CF9108958091F1008091F100693082
:1004700071F06A3089F0663099F4813229F0823265
:1004800079F40E94F6000AC00E94B10107C08230D0
:1004900039F40E94780102C00E94960181E008951B
:1004A00080E008958FEF84B98FE785B994E097B91C
:1004B00098B990E19AB99FEE9BB985B985B185B994
:1004C00008951F93CF93DF9300D000D0CDB7DEB750
:1004D00080916E02882309F4F3C082E08093E900E2
:1004E0008091E80082FFB2C08091F1008F708F3060
:1004F00009F04AC01091F1006091F1008091690209
:1005000090916A029C012F5F3F4F30936A022093C3
:1005100069020E9441086091F10080916902909106
:100520006A029C012F5F3F4F30936A022093690259
:100530000E9441086091F1008091690290916A02E5
:100540009C012F5F3F4F30936A02209369020E9403
:100550004108111146C06FEF8091690290916A02C3
:100560000E9441088091E8008B7F8093E800809191
:10057000E8008F778093E8008091E00081608093AD
:10058000E00080E090E09EC09091F1009F7092307A
:1005900079F018F4913031F01CC0933079F0943038
:1005A00099F017C0882311F0289813C0289A11C019
:1005B000882311F029980DC0299A0BC0882311F0C7
:1005C0002A9807C02A9A05C0882311F02B9801C0E9
:1005D0002B9A8091F1008ABD2091F1009091F10059
:1005E00002C090E020E08091E8008B7F8093E800DB
:1005F0008091E8008F778093E800253539F59A3AA5
:1006000029F58FE785B98091E00081608093E00053
:1006100019821A821B821C8289819A81AB81BC81DA
:1006200080379141A140B10560F489819A81AB8105
:10063000BC810196A11DB11D89839A83AB83BC83C4
:10064000EBCFE0910001F091010109954D9B09C0AC
:100650004F9B07C089B186FB992790F981E08927D4
:1006600001C081E091E09093E9009091E80095FF4E
:1006700027C090916002891719F18093F1009AB513
:100680009093F1009AB59093F1009AB59093F10090
:100690009AB59093F1009AB59093F1009AB5909322
:1006A000F1009AB59093F1009091E8009E7F9093AD
:1006B000E8009091E8009F779093E80080936002B3
:1006C00081E090E00F900F900F900F90DF91CF910D
:1006D0001F910895809161028F5F80936102089558
:1006E000EBEEF0E09081916090838093EC00EDEE72
:1006F000F0E080818270682B6083808182608083DB
:100700008091EE00881F8827881F08951092E900C5
:100710008091EB0080FD06C01092E90060E282E06B
:100720000C94700380E008950C942E060C94A70698
:100730001F920F920FB60F9211242F933F934F9356
:100740005F936F937F938F939F93AF93BF93EF9339
:10075000FF938091E10082FF09C08091E20082FF57
:1007600005C08BEF8093E1000E946A038091E10055
:1007700080FF1DC08091E20080FF19C08091E200DF
:1007800080618093E2008FEE8093E1008091D80039
:1007900080628093D80080916202909163028062AF
:1007A00090936302809362028EEF8093E1008091C8
:1007B000E10084FF1AC08091E20084FF16C080919E
:1007C000D8008F7D8093D8008FEE8093E1008091D8
:1007D000E2008F7E8093E20080916202909163023A
:1007E000806490936302809362028091E10085FFB0
:1007F0001AC08091E20085FF16C08091E2008F7ED2
:100800008093E2008FED8093E1008091E2008F7D84
:100810008093E200809162029091630280689093DD
:100820006302809362028091E10083FF12C0809195
:10083000E20083FF0EC087EF8093E1000E948603F1
:100840008091620290916302916090936302809321
:100850006202FF91EF91BF91AF919F918F917F9134
:100860006F915F914F913F912F910F900FBE0F901D
:100870001F901895CF93DF9300D0CDB7DEB780914E
:10088000E8008B7F8093E8008091F1008093640200
:100890009091F100492F50E04C30510508F0CAC149
:1008A000FA01E65CFF4F0C943308803809F09AC0D7
:1008B000109267026091F1008091F100813041F067
:1008C000823081F489E280936F028FEF90E005C05F
:1008D00082E180936F0288E291E0909371028093AD
:1008E000700205C00E94CE00882309F4A8C180913F
:1008F000F1008091F1008091F10089838091F100F5
:100900008A838091E800877F8093E80029813A817B
:1009100080916F02482F50E04217530748F48F71BF
:1009200021F481E08093670205C01092670202C043
:1009300020936F028091E8008F7E8093E800809181
:100940006F02811106C080916702813009F03DC0BD
:100950002FC08091E80084FDF6CF8091E80080FDF3
:1009600004C08091E80084FFF8CF81E290916F028B
:100970009923B1F08150A1F0E0917002F0917102E1
:100980009F012F5F3F4F3093710220937002E491DB
:10099000E093F10090916F02915090936F02E6CF37
:1009A0008091E80084FDCFCF8091E8008E7FC5CF95
:1009B0008091E80084FD09C08091E80080FFFCCFB1
:1009C0008091E8008E7F8093E8008091E80084FFAA
:1009D000FCCF8091E8008F7E8093E8008091E80052
:1009E0008B7F35C166E00FC18038C1F48091E8008B
:1009F000877F8093E80080916E028093F100809160
:100A0000E8008E7F8093E8008091E8008F778093E4
:100A1000E8008091E80082FFFCCFEBC068E0F3C003
:100A200081111DC08091E3009091F1009F77807843
:100A3000892B8093E3008091E800877F8093E80012
:100A40008091E8008E7F8093E8008091E80080FF2D
:100A5000FCCF8091E30080688093E300FAC065E0FA
:100A6000D2C0811119C09091F100923008F0E7C016
:100A70008091E800877F8093E80090936E028091D8
:100A8000E8008E7F8093E80080916E020F900F90B7
:100A9000DF91CF910C94BC0069E0B5C0833090F534
:100AA0008823B1F1813009F4CAC08091F10090919E
:100AB000F1008111C4C0E091F100EF77E093E9000B
:100AC0008091EB0080FF50C0EE23A9F08091EB00F5
:100AD00080618093EB0081E090E00E2E01C0880FD2
:100AE0000A94EAF78093EA001092EA008091EB0002
:100AF00088608093EB001092E900F0E0EB59FD4F25
:100B0000108229C061E07FC0833088F5811103C065
:100B10008091F10094C0813009F491C08091F1007E
:100B20009091F10081118BC0E091F100EF7709F411
:100B300086C0E093E9008091EB0080FF15C08091B2
:100B4000EB0080628093EB001092E900F0E0EB593B
:100B5000FD4F81E080838091E800877F8093E800EB
:100B60008091E8008E7F73C01092E90068C063E056
:100B70004AC090E8980F933050F59091F100909111
:100B8000F100E091F100813811F0823841F080915C
:100B9000E800877F8093E8001092F1000CC08091FC
:100BA000E800877F8093E800EF77F0E0EB59FD4F96
:100BB00080818093F1001092F1008091E8008E7F97
:100BC0008093E8008091E80082FFFCCF12C060E0D3
:100BD0001AC08138B9F48091E800877F8093E800DB
:100BE0008091E8008E7F8093E8008091E80082FF8A
:100BF000FCCF8091E8008B7F8093E8008091E80033
:100C00008F7725C06AE00F900F90DF91CF910C9401
:100C100033028130F1F48091E800877F8093E8000F
:100C20008091E8008E7F8093E8008091E80080FF4B
:100C3000FCCF0FC0692F0E94330281110AC080913E
:100C4000EB0080628093EB008091E800877F8093C7
:100C5000E8000F900F90DF91CF910895E8EDF0E05C
:100C600080818F778083808180688083089580E091
:100C700021E032E046E09091E10092FD34C0909195
:100C8000D80090629093D80099B59D7F99BD15BC0E
:100C900014BC16BC25BB882321F0813021F449BD4A
:100CA00004C039BD02C039BD80E08F5F95B5956045
:100CB00095BD09B400FC03C095B39130D1F715BCC4
:100CC00016BC95B3913011F495BBD5CF9091D80057
:100CD0009F7D9093D80025BB95B5956095BD95B344
:100CE0009130E9F7C8CF14BC15BC16BC8BEF8093CC
:100CF000E10008950F931F93CF93DF9308ED10E069
:100D0000F801808180628083808180688083C0EE6A
:100D1000D0E088818E7F88830E943706F801808129
:100D20008F7D808388818E7F888388818B7F888375
:100D3000E2EEF0E080818160808380818860808342
:100D40007894DF91CF911F910F910C94860380913D
:100D50006802811105C081E0809368020E947A06D2
:100D6000809162029091630290FF10C080916202B4
:100D7000909163029E7F909363028093620281E070
:100D80008093EA001092EA0010926E021092E9003D
:100D90008091E80083FD0C943A040895CF93DF938B
:100DA000CDB7DEB727970FB6F894DEBF0FBECDBF25
:100DB00084E087B988B98FEF84B955985D9AC12CC2
:100DC000D12C00E010E0E12CF12CA12CB12C612CF5
:100DD000712C412C512C1F821E8230E0312C80E07E
:100DE000212C20E04FEF54E1852E912C882359F1DE
:100DF000C8018A0D9B1D67E070E00E941F089A835E
:100E00008983CB012B833C834D830E9439082B813E
:100E10003C814D8162E0E616F10479F490E067E0F0
:100E200070E00E940E0869817A81860F971FFC018D
:100E3000EE5FFE4F808185B901C045B980E392E045
:100E40000197F1F729C081E090E0032C01C0880FE1
:100E50000A94EAF7809585B988E191E00197F1F766
:100E600077E4C716D10420F48FEFC81AD80A14C04B
:100E7000332329F096E0931540F0339403C03320D8
:100E800041F03A94C12CD12C07C0C12CD12C30E0B8
:100E900003C0C12CD12C31E0E9B1E0722E1761F111
:100EA00023946AE0621550F5222361F1E1112AC012
:100EB0008E819F816EE070E00E940E08B4010E9456
:100EC0001F082B018E819F81880F991FB4010E94FA
:100ED0001F083B0176E0A70EB11C8091690290913A
:100EE0006A0267E070E00E940E088397A816B906B0
:100EF00038F0A12CB12C04C0212C04C0E22F02C078
:100F00001F821E828E819F8184159505B9F18615F9
:100F10009705A9F091E0E916F10449F403321105AF
:100F2000B0F40F5F1F4FEE24E394F12C12C022E0C7
:100F3000E216F10471F40115110549F002C003E253
:100F400010E00150110982E0E82EF12C02C0E12CE2
:100F5000F12C6E817F816C3281E0780748F000E0EF
:100F600010E0E12CF12CA12CB12C80E02E2F3ECFF3
:100F70006F5F7F4F7F836E8381E0F8CF6E817F81CB
:100F800066157705E1F200E010E0CBCF80E18AB989
:100F90008FEE8BB988EE93E00197F1F74D990BC076
:100FA00080E88093610083E08093610010926A0280
:100FB0001092690228C0809163008E7F8093630045
:100FC000A89587EF84BF809160008861809360005E
:100FD0001092600080E880936100109261000E948E
:100FE00094030E9452020E9496030E946102892B80
:100FF000D1F7D6CFCD3F81E0D80770F42196D093BA
:101000006A02C0936902C0916902D0916A02CE015E
:101010000E9439088F3F71F70E94CE0600245527A1
:1010200004C0080E591F880F991F009729F0769564
:101030006795B8F37105B9F7802D952F0895AA1B10
:10104000BB1B51E107C0AA1FBB1FA617B70710F0B3
:10105000A61BB70B881F991F5A95A9F780959095E5
:10106000BC01CD010895EE0FFF1F0590F491E02D16
:101070000994F999FECF92BD81BDF89A992780B560
:101080000895262FF999FECF1FBA92BD81BD20BDCC
:101090000FB6F894FA9AF99A0FBE01960895F8944B
:0210A000FFCF80
:1010A20000F0FFFFFFFFFFFFFFFF8077777780FFF2
:1010B200FF006E6E6E91FFFF817E7E7E7EFFFF00DF
:1010C2007E7E7E81FFFF006E6E6E7EFFFF006F6F81
:1010D2006F7FFFFF817E7676B1FFFF00EFEFEF00BB
:1010E200FFFFFF7E007EFFFFFFFDFEFEFE01FFFF12
:1010F20000EFEFD738FFFF01FEFEFEFEFFFF00BF4D
:10110200DFBF00FFFF009FE7F900FFFF817E7E7EC9
:1011120081FFFF007777779FFFFF817E7A7D82FFD5
:10112200FF007777738CFFFF9C6E6E6EB1FFFF7FBF
:101132007F007F7FFFFF01FEFEFE01FFFF03FEFE39
:10114200FE03FFFF00FDFBFD00FFFF38D7EFD7389E
:10115200FFFF3FDFE0DF3FFFFF78766E5E3EFFFF7F
:10116200817A766E81FFFFFFDFBF00FFFFFFBC7A4F
:10117200766E9EFFFFBD7E6E6E91FFFF07F7C0F792
:10118200F7FFFF0E6E6E6E71FFFF816E6E6EF1FFE6
:10119200FF7F7C734F3FFFFF916E6E6E91FFFF9D4D
:1011A2006E6E6E81FFFFFF0202FFFFFFFF675A5A5A
:1011B200BBFFFFFFF7F7F7F7F7FFFFEFEF83EFEF65
:1011C200FFFFABC701C7ABFFFFFFFFD7D7FFFFFF93
:1011D200FFFEFDD7FFFFFFFFFCFCD7FFFFFFDD9EF9
:1011E200F29EDDFFFFC783C183C7FFFFFFC3BD7E42
:1011F200FFFFFFFF7EBDC3FFFFFFEBEBEBEBEBFF60
:00000001FF
